:020000040040BA
:10000000F8264020E1244000912540009125400041
:1000100091254000912540009125400000000000FE
:1000200000000000000000000000000091254000DA
:1000300091254000000000009125400091254000DE
:10004000912540009125400091254000F92740006E
:1000500091254000912540009125400091254000C8
:10006000912540000000000099204000B120400090
:10007000C920400091254000912540009125400075
:10008000E1204000F92040009125400091254000EA
:100090009125400091254000912540002D284000E9
:1000A00051284000912540009125400091254000B5
:1000B0009125400091254000912540009125400068
:1000C0009125400091254000912540009125400058
:1000D0000000000091254000000000009125400034
:1000E0009125400091254000912540009125400038
:1000F0009125400091254000912540009125400028
:100100009125400091254000912540009125400017
:1001100091254000000000000000000000000000E9
:1001200091254000912540009125400091254000F7
:1001300091254000000000009125400091254000DD
:1001400010B5054C237833B9044B13B10448AFF311
:1001500000800123237010BD3C04402000000000FB
:10016000242E40000C4B43B10C480D4910B5AFF3A1
:1001700000800C48036823B910BD0A48036833B9EE
:100180007047094B002BF7D0BDE810401847064BCD
:10019000002BF5D0184700BF00000000242E4000BF
:1001A00040044020242E40000000000080B483B0B2
:1001B00000AF0346FB71094997F907305B09FA79EB
:1001C00002F01F02012000FA02F241F8232000BFD2
:1001D0000C37BD465DF8047B704700BF00E100E0CE
:1001E00080B483B000AF03463960FB7197F90730E4
:1001F000002B0BDA0D49FB7903F00F03043B3A683F
:10020000D2B25201D2B20B441A7609E0084997F9EA
:1002100007303A68D2B25201D2B20B4483F80023BD
:1002200000BF0C37BD465DF8047B704700ED00E071
:1002300000E100E080B483B000AF78607B68072BFA
:1002400025D801A252F823F0690240006F02400055
:10025000750240007B0240007F02400083024000A4
:10026000870240008B0240004FF4FA4310E04FF445
:1002700000430DE04FF400430AE0084B08E0084B50
:1002800006E0084B04E0074B02E0064B00E00023C9
:1002900018460C37BD465DF8047B704700093D00E9
:1002A00000127A00001BB70080B500AF0620054B96
:1002B0009847024613469B0013449A00134418467D
:1002C00080BD00BF3502400080B500AF024B9847AB
:1002D0000346184680BD00BFA902400090B58BB010
:1002E00002AFF860B9607A603B601D4B9847F861D7
:1002F000BB6818461B4B9847386807F1140107F193
:100300001802FB6900930B46F969174CA0477968FE
:100310007B6943F480431A46F868144B9847796820
:10032000BB69FA69B2FBF3F23B68B2FBF3F31A461E
:10033000F8680F4B9847BB685BB2042118460D4B19
:100340009847BB685BB218460B4B98477B681022F6
:100350001946F868094B984700BF2437BD4690BD41
:10036000C9024000D52340004F084000A3074000C9
:10037000DD074000E1014000AD01400003084000FE
:1003800090B589B002AFF860B9607A603B60786878
:100390001E4B9847FB6A002B07D00923BA684FF021
:1003A0002051F8681A4CA04706E00023BA684FF0C5
:1003B0002051F868164CA0473C22B968F868154BE4
:1003C0009847BB6A002B01D0702300E040237B617B
:1003D0003B6800937B69BA687968F8680E4CA0475F
:1003E000B968F8680D4B9847F8680D4B98477B68DB
:1003F0005BB218460B4B98477B685BB204211846EA
:10040000094B984700BF1C37BD4690BDD52340001F
:10041000A51D4000791B4000F91F4000DD1E400073
:10042000151F4000AD014000E101400080B483B0E1
:1004300000AF78607B68DB6818460C37BD465DF816
:10044000047B704780B483B000AF78607B685B68E2
:1004500003F00203002B01D0012300E00023184623
:100460000C37BD465DF8047B7047000080B582B054
:1004700000AF78607868034B984700BF0837BD46E7
:1004800080BD00BFD523400080B582B000AF78604A
:100490007B68094A934203D11520084B984706E030
:1004A0007B68074A934202D12A20044B984700BF39
:1004B0000837BD4680BD00BF008000406D0440008D
:1004C0000080054080B483B000AF786039607B68FD
:1004D0005B6823F470227B685A607B685A683B68CB
:1004E0001B0403F470231A437B685A6000BF0C3767
:1004F000BD465DF8047B704780B584B000AF78607E
:10050000084611461A4603467B800B467B7013460D
:100510003B7043F69823FB6006E0FB685A1EFA60C6
:10052000002B01D1012320E07B681B6903F002034B
:10053000002BF2D078680F4B98470346002B0ED063
:100540007A887B781B0403F470231343BB603B78E9
:10055000002B06D0BB6843F08073BB6001E07B8852
:10056000BB607B68BA68DA60002318461037BD4666
:1005700080BD00BF4504400080B485B000AFF86086
:10058000B9607A607B68002B0CD0FB68BA680C32CB
:1005900053F8223043F00101FB68BA680C3243F88B
:1005A00022100BE0FB68BA680C3253F8223023F0BB
:1005B0000101FB68BA680C3243F8221000BF1437FF
:1005C000BD465DF8047B704780B485B000AFF8602D
:1005D000B9607A607B68002B0CD0FB68BA680C327B
:1005E00053F8223043F00201FB68BA680C3243F83A
:1005F00022100BE0FB68BA680C3253F8223023F06B
:100600000201FB68BA680C3243F8221000BF1437AD
:10061000BD465DF8047B704780B485B000AFF860DC
:10062000B9607A607B68042B18D1FB68BA680C3219
:1006300053F8223023F00801FB68BA680C3243F803
:100640002210FB68BA680C3253F8223043F00401E0
:10065000FB68BA680C3243F822102AE07B68002B52
:1006600018D1FB68BA680C3253F8223023F0080125
:10067000FB68BA680C3243F82210FB68BA680C3287
:1006800053F8223023F00401FB68BA680C3243F8B7
:1006900022100EE07B68082B0BD1FB68BA680C3285
:1006A00053F8223043F00801FB68BA680C3243F873
:1006B000221000BF1437BD465DF8047B704780B43C
:1006C00085B000AFF860B9607A60FB68BA680C3238
:1006D00053F8223023F0F001FB68BA680C3243F87B
:1006E0002210FB68BA680C3253F822207B6842EA79
:1006F0000301FB68BA680C3243F8221000BF1437BC
:10070000BD465DF8047B704780B485B000AF78606B
:1007100039603A687B6813445A1E7B68B2FBF3F376
:10072000FB60FB68002B02DDFB68FF2B02DD4FF056
:10073000FF3301E0FB681BB218461437BD465DF875
:10074000047B704780B485B000AFF860B960134691
:10075000FB71FB79002B02D14FF0FF331BE0FB68EC
:10076000BA680C3253F8223023F47F41FB68BA6830
:100770000C3243F82210FB68BA680C3253F822207E
:10078000FB791B029BB242EA0301FB68BA680C3298
:1007900043F82210002318461437BD465DF8047B49
:1007A000704780B487B000AFF860B9607A60FA68CB
:1007B000BB689B0113447B617B6902221A607B69E1
:1007C0004FF0FF329A627B691B6A7B697A685A60D4
:1007D00000BF1C37BD465DF8047B704780B485B010
:1007E00000AFF860B9607A60FA68BB689B01134497
:1007F0001C337A681A6000BF1437BD465DF8047B6D
:10080000704780B487B000AFF860B9607A60FA686A
:10081000BB689B0113447B617B697A685A6200BFA5
:100820001C37BD465DF8047B704780B485B000AFCF
:10083000786039607A683B689B011344FB60FB6811
:100840001B6A18461437BD465DF8047B704780B4B8
:100850008DB000AFF860B9607A603B6002233B6105
:1008600008237B612023BB618023FB61BB6BDB0B17
:100870003B620023FB621AE0FB6A9B0007F1300237
:10088000134453F8203CBA68B2FBF3F3BB62BB6A73
:100890001B0C7B62FA68BB6A9A4201D9002323E0F1
:1008A000FA687B6A9A4206D2FB6A0133FB62FB6AF2
:1008B000042BE1D900E000BFFB6A042B01D900231F
:1008C00012E07B68002B08D0FB6A9B0007F1300226
:1008D000134453F8202C7B681A603B68002B02D02D
:1008E0003B68FA6A1A60012318463437BD465DF842
:1008F000047B704780B483B000AF7860044A7B68A3
:10090000136000BF0C37BD465DF8047B704700BF25
:100910005804402080B483B000AF0346FB710B46FF
:10092000BB7113467B71084B1A68FB79DB011946D2
:10093000BB790B4413447A791A7000BF0C37BD465B
:100940005DF8047B704700BF5804402080B483B03A
:1009500000AF03460A46FB711346BB71074B1A688A
:10096000FB79DB011946BB790B4413441B7818460D
:100970000C37BD465DF8047B704700BF580440202B
:1009800080B582B000AF0346FB71FB7903F00F0323
:10099000FB71FB7963F04F03DBB21846024B9847BB
:1009A00000BF0837BD4680BDBD11400080B582B094
:1009B00000AF0346FB71FB7903F07F03FB71FB790A
:1009C0001B09DBB243F01003DBB21846064B984715
:1009D000FB7903F00F03DBB21846034B984700BFC7
:1009E0000837BD4680BD00BFBD11400080B582B054
:1009F00000AF0346FB71FB7903F03F03FB71FB790A
:100A000043F04003DBB21846024B984700BF08375B
:100A1000BD4680BDBD11400090B583B000AF124807
:100A2000124B9847124B98470020124B98470023CF
:100A3000FB7112E00023BB7108E0B979F87901235A
:100A400000220D4CA047BB790133BB7197F90630EA
:100A5000002BF2DAFB790133FB71FB79032BE9D927
:100A600000BF0C37BD4690BD5C044020F508400037
:100A70000D114000ED0940007D0A400090B583B0A3
:100A800000AF0446084611461A462346FB7103464A
:100A9000BB710B467B7113463B713B7983F00103BD
:100AA000DBB2002B0AD0BA79FB79114618460F4BFE
:100AB000984703461A467B79934212D07A79B979DE
:100AC000FB7918460A4B9847FB791846094B98471B
:100AD000BB791846084B98477B791846074B9847CF
:100AE00000E000BF0C37BD4690BD00BF4D0940007F
:100AF0001509400081094000AD0940006112400025
:100B000080B483B000AF78607B68072B25D801A242
:100B100052F823F0350B40003B0B4000410B4000E6
:100B2000470B40004B0B40004F0B4000530B400065
:100B3000570B40004FF4FA4310E04FF400430DE030
:100B40004FF400430AE0084B08E0084B06E0084B6E
:100B500004E0074B02E0064B00E0002318460C3788
:100B6000BD465DF8047B704700093D0000127A0025
:100B7000001BB70080B500AF0620054B9847024622
:100B800013469B0013449A001344184680BD00BFCF
:100B9000010B400080B500AF024B98470346184652
:100BA00080BD00BF750B400080B500AF024B984779
:100BB00003465B08184680BD750B400080B489B0C1
:100BC00000AF78607B68FB61FB69BB61BB695A0958
:100BD000FB697B617B6903F01F03012101FA03F3C9
:100BE0003A61FB603B69BB60BA68064B13445B0229
:100BF0001A46FB68136000BF2437BD465DF8047BCE
:100C0000704700BF0707200080B48DB000AF786048
:100C100039607B68FB623B68BB62FB6A7B627B6A14
:100C20005A09FB6A3B623B6A03F01F03012101FA88
:100C300003F3FA61BB61BB6A7B61FB693B613A69A3
:100C4000374B13445B02FB607B6903F00803002B06
:100C500003D0FB68BA695A6602E0FB68BA691A6693
:100C60007B6903F01003002B04D0FB68BA69C3F85A
:100C7000942003E0FB68BA69C3F890207B6903F015
:100C80002003002B03D0FB68BA691A6502E0FB68F9
:100C9000BA695A657B6903F0C003002B03D0FB6877
:100CA000BA691A6202E0FB68BA695A627B6903F0AA
:100CB0008003002B04D0FB68BA69C3F8842003E0EA
:100CC000FB68BA69C3F880207B6903F00103002B3D
:100CD00006D0FB681A6FBB691A43FB681A6706E007
:100CE000FB681A6FBB69DB431A40FB681A677B69B4
:100CF00003F00203002B06D0FB685A6FBB691A434E
:100D0000FB685A6706E0FB685A6FBB69DB431A4011
:100D1000FB685A6700BF3437BD465DF8047B7047F7
:100D20000707200080B48DB000AF78600B46FB70E1
:100D30007B68FB62FB7887F82B30FB6A7B627B6AFF
:100D40003B623B6A5B09FB61FA69174B13445B0228
:100D5000BB6197F82B30012B09D1FB6A7B617B6962
:100D600003F01F0301229A40BB691A610CE097F857
:100D70002B30002B08D1FB6A3B613B6903F01F035A
:100D800001229A40BB695A61FB6AFB60FB6803F071
:100D90001F0301229A40BB69C3F8A02000BF34376B
:100DA000BD465DF8047B70470707200080B48BB018
:100DB00000AF78600B46FB707B687B62FB7887F83E
:100DC00023307B6AFB61FB69BB61BB695B097B61AB
:100DD0007A69104B13445B023B6197F82330002B78
:100DE00009D07B6AFB60FB6803F01F0301229A4075
:100DF0003B691A6308E07B6ABB60BB6803F01F03B2
:100E000001229A403B695A6300BF2C37BD465DF80A
:100E1000047B70470707200080B483B000AF786080
:100E20007B6880221A6000BF0C37BD465DF8047BEA
:100E3000704780B483B000AF78607B6801221A608D
:100E400000BF0C37BD465DF8047B704780B483B0AB
:100E500000AF78607B6802221A6000BF0C37BD4685
:100E60005DF8047B704780B483B000AF78607B6826
:100E70005B6843F001027B685A6000BF0C37BD46D7
:100E80005DF8047B704780B483B000AF78607B6806
:100E90005B6823F002027B685A6000BF0C37BD46D6
:100EA0005DF8047B704780B483B000AF78607B68E6
:100EB0005B6843F010027B685A6000BF0C37BD4688
:100EC0005DF8047B704780B483B000AF78607B68C6
:100ED0005B6823F080027B685A6000BF0C37BD4618
:100EE0005DF8047B7047000080B582B000AF0F4B07
:100EF000984702460E4BA3FB02239A0C13469B0015
:100F000013445B007B60002151200A4B98477868AE
:100F1000094B984701215120064B98477868064BAA
:100F2000984700BF0837BD4680BD00BF950B400005
:100F300083DE1B43AD0D40000100402080B500AFB3
:100F4000AF20024B984700BF80BD00BFBD114000DD
:100F500080B582B000AF0346FB718120054B9847F6
:100F6000FB791846034B9847FB7918460837BD466E
:100F700080BD00BFBD11400080B500AFA620024B70
:100F8000984700BF80BD00BFBD11400090B583B041
:100F900000AF01215120464B984701212320444BAB
:100FA000984708215120434B984708212320414B63
:100FB00098472320404B984751203F4B98470121A9
:100FC00023203E4B9847012151203C4B984700235A
:100FD0004FF480024FF0805139483A4CA04700232B
:100FE0004FF400124FF080513548364CA047002393
:100FF0004FF000724FF080513148324CA04700232F
:101000004FF480024FF080512D482E4CA047002312
:101010004FF400124FF0805129482A4CA04700237A
:101020004FF000724FF080512548264CA0472648CB
:10103000264B98472448264B98472348254B9847EA
:10104000082201212048244B9847002201211E48F4
:10105000224B9847002201211B48214B98471A48F0
:10106000204B98470022012117481F4B98471648EC
:101070001E4B984714481E4B98471E4B98470346F3
:1010800019461D481D4B984703467B607B68DBB2C1
:101090001A4601210C481A4B98470B48194B9847A0
:1010A0000948194B984700BF0C37BD4690BD00BF9B
:1010B000250D4000090C4000BD0B4000AD0D400067
:1010C00000140E40A51D4000008000404D0E400061
:1010D000190E4000670E40001906400079054000D7
:1010E000C9054000870E4000BF064000C70E400003
:1010F000A70E4000A90B400040420F000907400026
:101100004507400089044000330E400080B500AF21
:10111000234B9847234B984701215120224B984756
:10112000A820224B98471F20204B9847D3201F4BC5
:10113000984700201D4B984740201C4B9847A12002
:101140001A4B9847C820194B9847DA20174B9847F5
:101150000220164B98478F20154B9847A420134B1D
:101160009847144B9847D520104B984780200F4B39
:1011700098478D200D4B984714200C4B9847DB2047
:101180000A4B98474020094B9847D920074B98476E
:10119000F120064B9847084B984700BF80BD00BF21
:1011A0008D0F4000E90E4000AD0D4000BD11400024
:1011B000510F4000790F40003D0F4000F0B583B063
:1011C00000AF0346FB71002123201C4B98470121EF
:1011D0001B481C4B9847FB7999B201230122184800
:1011E000194CA047194B9847034619464FF0000287
:1011F0000B461446A60046EA93769D002B463446DD
:101200005B1844EB0204DB1844EB04041946224645
:101210000F4B4FF00004CD1842EB04062846314630
:101220000C4C0D4A4FF00003A04703460C461846ED
:101230000A4B984700BF0C37BD46F0BDAD0D4000CE
:1012400000800040C5044000F9044000950B4000B8
:10125000DF835A0075294000E0835A0001004020D6
:10126000F0B583B000AF0346FB71012123201C4B76
:10127000984701211B481C4B9847FB7999B20123E1
:1012800001221848194CA047194B984703461946A4
:101290004FF000020B461446A60046EA93769D00E6
:1012A0002B4634465B1844EB0204DB1844EB040481
:1012B000194622460F4B4FF00004CD1842EB0406AE
:1012C000284631460C4C0D4A4FF00003A047034618
:1012D0000C4618460A4B984700BF0C37BD46F0BD78
:1012E000AD0D400000800040C5044000F9044000FE
:1012F000950B4000DF835A0075294000E0835A00B7
:101300000100402080B582B000AF78607B68072B79
:1013100031D801A252F823F0751340003913400070
:10132000411340004913400051134000591340003D
:10133000611340006B1340000020114B98471AE0E6
:1013400001200F4B984716E000200E4B984712E003
:1013500010200C4B98470EE020200A4B98470AE0DB
:101360003E210020084B984705E03E210120064B16
:10137000984700E000BF00BF0837BD4680BD00BFF2
:10138000112240007D224000ED22400080B582B055
:1013900000AF78607B68072B26D801A252F823F0B3
:1013A000C1134000C5134000C5134000D7134000CF
:1013B000D7134000D7134000D7134000D713400085
:1013C000012312E00B4B98470346002B14BF012367
:1013D0000023DBB209E0084B98470346002B14BFFB
:1013E00001230023DBB200E0002318460837BD4686
:1013F00080BD00BF492240006523400080B483B017
:1014000000AF78607B68072B25D801A252F823F043
:1014100031144000371440003D1440004314400094
:10142000471440004B1440004F1440005314400038
:101430004FF4FA4310E04FF400430DE04FF4004343
:101440000AE0084B08E0084B06E0084B04E0074BB5
:1014500002E0064B00E0002318460C37BD465DF85D
:10146000047B704700093D0000127A00001BB700A2
:1014700080B582B000AF0346FB7100BFFB79184610
:10148000054B9847034683F00103DBB2002BF5D1EF
:1014900000BF0837BD4680BD8D13400080B586B0C3
:1014A00000AFF8607A603B600B46FB727B68002BF4
:1014B00007D13B68002B04D1FB684FF470021A601F
:1014C00019E0FB7A18460E4B984702467B68B2FB40
:1014D000F3F37B617B693A6802FB03F37B613B6852
:1014E000013B1A04074B13407A68D2B2134343F40A
:1014F0007C52FB681A6000BF1837BD4680BD00BF34
:10150000FD1340000000FF0780B582B000AF786097
:1015100039603B68002B08D1094B9847094A7B6822
:101520001B6843F00053936205E0064A7B681B6822
:1015300043F48033D36100BF0837BD4680BD00BF90
:101540008123400000060E4080B582B000AF786075
:101550007B68002B03D1054B9847034602E0044B00
:101560009847034618460837BD4680BD9D23400076
:10157000B923400080B582B000AF0346FB71FB7910
:10158000033B042B08D8FB791846064B9847FB7998
:101590001846054B984700E000BF00BF0837BD461E
:1015A00080BD00BF051340007114400080B582B0BB
:1015B00000AF786000BF7868044B98470346002B63
:1015C000F9D0002318460837BD4680BD49154000B4
:1015D00080B500AF0620054B9847024613469B0096
:1015E00013449A001344184680BD00BFFD13400009
:1015F00080B500AF024B98470346184680BD00BF38
:10160000D115400090B583B000AF1348134B9847F5
:101610000620134B9847381D192301220621114C2F
:10162000A0473B1D002118460F4B984700200F4B49
:10163000984702200E4B984700200E4B98470E4BC0
:1016400098470E4B984703461846044B984700BFEF
:101650000C37BD4690BD00BF00A3E111012740003B
:10166000751540009D14400009154000AD1540005F
:10167000112140008D21400099254000F1154000C6
:1016800080B400AFBFF34F8FBFF36F8F094B0022C1
:10169000C3F85022074A074B5B6943F40033536198
:1016A000BFF34F8FBFF36F8F00BFBD465DF8047B64
:1016B000704700BF00ED00E080B48BB000AF264B58
:1016C000D3F88030FB61FB695B0BC3F30E037B62D5
:1016D000FB6903F007030433BB61FB69DB08C3F359
:1016E00009037B617B69BB60BB68B3FA83F37B60F2
:1016F0007B68DBB203F01F033B61BFF34F8F7B6955
:101700003B623A6A3B6902FA03F319467A6ABB699B
:1017100002FA03F30B43FB600F4AFB68C2F8603226
:101720003B6A5A1E3A62002BEBD17B6A5A1E7A62E0
:10173000002BE4D1BFF34F8F074A074B5B6943F49B
:1017400080335361BFF34F8FBFF36F8F00BF2C37D0
:10175000BD465DF8047B704700ED00E080B582B0C7
:1017600000AF78607868034B984700BF0837BD46E4
:1017700080BD00BFD523400080B500AF0A20084BD4
:1017800098470B20064B98470C20054B9847102094
:10179000034B98471120024B984700BF80BD00BF04
:1017A0005D17400080B48DB000AF786039607B6811
:1017B000FB623B68BB62FB6A7B627B6A5A09FB6A1D
:1017C0003B623B6A03F01F03012101FA03F3FA6154
:1017D000BB61BB6A7B61FB693B613A69374B134470
:1017E0005B02FB607B6903F00803002B03D0FB68FE
:1017F000BA695A6602E0FB68BA691A667B6903F047
:101800001003002B04D0FB68BA69C3F8942003E0EE
:10181000FB68BA69C3F890207B6903F02003002BB2
:1018200003D0FB68BA691A6502E0FB68BA695A65B9
:101830007B6903F0C003002B03D0FB68BA691A620E
:1018400002E0FB68BA695A627B6903F08003002BEF
:1018500004D0FB68BA69C3F8842003E0FB68BA6966
:10186000C3F880207B6903F00103002B06D0FB68DE
:101870001A6FBB691A43FB681A6706E0FB681A6FA8
:10188000BB69DB431A40FB681A677B6903F00203FC
:10189000002B06D0FB685A6FBB691A43FB685A6776
:1018A00006E0FB685A6FBB69DB431A40FB685A6766
:1018B00000BF3437BD465DF8047B70470707200042
:1018C00080B48DB000AF78600B46FB707B68FB6224
:1018D000FB7887F82B30FB6A7B627B6A3B623B6A52
:1018E0005B09FB61FA69174B13445B02BB6197F814
:1018F0002B30012B09D1FB6A7B617B6903F01F034D
:1019000001229A40BB691A610CE097F82B30002B3A
:1019100008D1FB6A3B613B6903F01F0301229A4037
:10192000BB695A61FB6AFB60FB6803F01F0301227D
:101930009A40BB69C3F8A02000BF3437BD465DF8AC
:10194000047B70470707200080B48BB000AF78603D
:101950000B46FB707B687B62FB7887F823307B6AE1
:10196000FB61FB69BB61BB695B097B617A69104BF9
:1019700013445B023B6197F82330002B09D07B6A4C
:10198000FB60FB6803F01F0301229A403B691A6366
:1019900008E07B6ABB60BB6803F01F0301229A402A
:1019A0003B695A6300BF2C37BD465DF8047B704726
:1019B0000707200080B48DB000AF78600B46FB7045
:1019C0007B68FB62FB7887F82B30FB6A7B627B6A63
:1019D0005A09FB6A3B623B6A03F01F03012101FACB
:1019E00003F3FA61BB6197F82B30FB75FB693B6130
:1019F0003A69234B13445B02FB60FB7D013B032BE5
:101A00002ED801A252F823F03D1A40004F1A400090
:101A1000191A40002B1A4000FB68BA69C3F8C420A9
:101A2000FB68BA69C3F8D0201FE0FB68BA69C3F845
:101A3000C420FB68BA69C3F8D42016E0FB68BA6911
:101A4000C3F8C020FB68BA69C3F8D0200DE0FB687A
:101A5000BA69C3F8C020FB68BA69C3F8D42004E0AF
:101A6000FB68BA69C3F8B42003E0FB68BA69C3F83D
:101A7000B02000BF3437BD465DF8047B704700BF1F
:101A80000707200080B400AFBFF34F8FBFF36F8F05
:101A90000C4A0C4BD3F8903223F00103C2F8903279
:101AA000084A084BD3F8943223F00103C2F8943269
:101AB000BFF34F8FBFF36F8F00BFBD465DF8047B50
:101AC000704700BF00ED00E080B500AF134B4FF44E
:101AD00000425A60124B9847124B9847124B134AD8
:101AE0005A60114B124A5A60124B9847124B984752
:101AF00001214820114B984701214820104B98475D
:101B000000210B200D4B984788210B200D4B984747
:101B100002210B200C4B984700BF80BD50180E408F
:101B200081164000B9164000000C0E400C08005A07
:101B30000C07005A851A400079174000C118400070
:101B400049194000A5174000B519400080B485B080
:101B500000AFF860B9607A607B68002B03D0FB6847
:101B6000BA685A6602E0FB68BA681A6600BF1437A2
:101B7000BD465DF8047B704780B485B000AFF86067
:101B8000B9607A60FB68BA68C3F884207B685B0040
:101B90004FF40042B2FBF3F3013BC3F30D02FB68C9
:101BA000C3F88C2000BF1437BD465DF8047B704736
:101BB00080B487B000AFF860B9607A60FB687A687B
:101BC0005A64BB68B3F1C05F4AD0B3F1C05F08D8B4
:101BD000B3F1006F16D0B3F1805F2CD0002B69D029
:101BE00064E0B3F1205F65D0B3F1205F03D8B3F1B7
:101BF000005F4AD05AE0B3F1405F5BD0B3F1605F61
:101C000058D053E0FB681B6F7B61FB681A6F7B68E1
:101C1000D9437B690B401A40FB681A67FB685B6F0E
:101C20007B61FB685A6F7B68D9437B690B401A4024
:101C3000FB685A673AE0FB681B6F7B617A687B69D7
:101C40001A43FB681A67FB685B6F7B61FB685A6F1E
:101C50007B68D9437B690B401A40FB685A6725E0D3
:101C6000FB681B6F7B61FB681A6F7B68D9437B69DC
:101C70000B401A40FB681A67FB685B6F7B617A68F0
:101C80007B691A43FB685A6710E0FB681B6F7B6136
:101C90007A687B691A43FB681A67FB685B6F7B6134
:101CA0007A687B691A43FB685A6700BFFB687A68E9
:101CB0005A6000E000BF1C37BD465DF8047B7047EA
:101CC00080B584B000AFF860B9607A60B968F86830
:101CD000194B98477B6803F001031A46B968F86806
:101CE000164B98477B6803F00A03002B03D0FB6870
:101CF000BA681A6202E0FB68BA685A627B6803F04D
:101D00000203002B04D0FB68BA68C3F8802008E007
:101D10007B6803F00803002B03D0FB68BA68C3F8A4
:101D20008420FB68BA685A61FB68BA681A6000BF11
:101D30001037BD4680BD00BFF91E40004D1B40005E
:101D400080B584B000AFF860B9607A603B60B96874
:101D5000F868124B9847BA69B968F868104B984709
:101D60003B68002B03D0FB68BA681A6502E0FB6889
:101D7000BA685A657B68002B03D0FB68BA681A639F
:101D800002E0FB68BA685A63FB68BA681A61FB68CC
:101D9000BA681A6000BF1037BD4680BDF91E40000A
:101DA0004D1B400090B587B002AFF860B9607A6013
:101DB0003B60BB68B3F1005F16D0B3F1005F09D898
:101DC000B3F1805F10D0B3F1C05F0DD0B3F1006FFD
:101DD0000AD03DE0B3F1405F1AD0B3F1605F17D095
:101DE000B3F1205F0ED033E07A68B968F8681C4B15
:101DF00098473B6803F001031A467968F868194B65
:101E0000984727E03A687968F868174B984721E0C7
:101E1000BB68B3F1605F0CBF01230023DBB21A463D
:101E20003B6803F00403002B14BF01230023DBB243
:101E300019463B6803F00103002B14BF0123002364
:101E4000DBB200930B467968F868084CA04701E0C4
:101E5000002300E0012318461437BD4690BD00BFA3
:101E6000B11B40004D1B4000C11C4000411D400003
:101E700080B485B000AFF860B9607A607B6803F029
:101E80001003002B20D0FB68BA68C3F8B0207B6831
:101E900003F02003002B04D0FB68BA68C3F8D420F9
:101EA00003E0FB68BA68C3F8D0207B6803F0400306
:101EB000002B04D0FB68BA68C3F8C02008E0FB68B8
:101EC000BA68C3F8C42003E0FB68BA68C3F8B4205A
:101ED00000BF1437BD465DF8047B704780B483B003
:101EE00000AF786039607B683A681A6400BF0C37CD
:101EF000BD465DF8047B704780B483B000AF786066
:101F000039607B683A685A6400BF0C37BD465DF89B
:101F1000047B704780B483B000AF78607B68DB6C73
:101F200018460C37BD465DF8047B704780B483B01B
:101F300000AF78607B689B6C18460C37BD465DF837
:101F4000047B704780B584B000AF786039607868F2
:101F5000264B9847F8607868254B98470246FB68FF
:101F60001340FB60FB68002B3CD00023BB6034E0D7
:101F7000204ABB681B0113441A683B689A4226D169
:101F80001C4ABB681B01134404331A68FB681340E6
:101F9000002B1CD0174ABB681B0113440C331B6871
:101FA0001449BA6812010A4410681249BA68120149
:101FB0000A4404321268114698470E4ABB681B0156
:101FC000134404331B68DB43FA681340FB60BB68AF
:101FD0000133BB60BB68062B03D8FB68002BC7D15D
:101FE00000E000BF00BF1037BD4680BD151F400098
:101FF0002D1F40005C06402080B586B000AFF86021
:10200000B9607A603B60214B1B68062B01D9012324
:1020100038E00023FB7511E0FB7D1B011C4A1344D3
:102020003B613B691A68BB689A4204D13B695A68B4
:102030007B689A4208D0FB7D0133FB75FA7D134B18
:102040001B689A42E8D900E000BF3B69BA681A6091
:102050003B697A685A603B693A689A603B693A6AB8
:10206000DA60FA7D094B1B6801339A4204D1074BB1
:102070001B680133054A13603A687968F868054BB4
:102080009847002318461837BD4680BDCC0640202F
:102090005C064020711E400080B500AF0A21024856
:1020A000024B984700BF80BD000E0E40451F400008
:1020B00080B500AF0B210248024B984700BF80BD9E
:1020C00000100E40451F400080B500AF0C210248B3
:1020D000024B984700BF80BD00120E40451F4000D4
:1020E00080B500AF10210248024B984700BF80BD69
:1020F00000140E40451F400080B500AF112102487A
:10210000024B984700BF80BD00160E40451F40009F
:1021100080B483B000AF78607B68013B032B1AD892
:1021200001A252F823F000BF392140003F214000B6
:10213000472140004F21400000237B600EE04FF418
:1021400080737B600AE04FF440737B6006E04FF4DD
:1021500000737B6002E000237B6000BF0A490A4BEA
:102160001B6B23F440727B6813430B6300BF064B69
:102170009B6E03F00803002BF9D000BF0C37BD465F
:102180005DF8047B704700BF00060E4080B485B048
:1021900000AF78601D491D4B1B6B23F070027B68FC
:1021A00013430B634FF48053FB6007E0FB68002B85
:1021B00001D1012323E0FB68013BFB60134B9B6EC5
:1021C00003F00803002BF1D0104A104B1B6B23F0D7
:1021D000030343F0020313634FF48053FB6007E0F3
:1021E000FB68002B01D1012309E0FB68013BFB6088
:1021F000064B9B6E03F00803002BF1D0002318461A
:102200001437BD465DF8047B704700BF00060E40E2
:1022100080B483B000AF78607B68012B05D107499B
:10222000064B9A68064B13438B60044B054A1A60B1
:1022300000BF0C37BD465DF8047B704710180E4098
:10224000000010A5080000A580B400AF094B5B6931
:1022500003F08003002B07D0074B9B6E03F0800335
:10226000002B01D0012300E000231846BD465DF895
:10227000047B704710180E4000060E4080B483B0F7
:1022800000AF78601549154B1A6A154B13430B6262
:1022900000BF124B9B6E03F40033002BF9D00F49A3
:1022A0000E4B1A6A0F4B13407A68134343F45C13C6
:1022B0000B6200BF094B9B6E03F40033002BF9D077
:1022C0000649064B1A6A084B134043F45C130B6231
:1022D00000BF0C37BD465DF8047B704700060E401A
:1022E000080037008FFFC8FFFFFFC8FE80B483B02F
:1022F00000AF786039607B68002B08D01349134B1E
:102300001B6A134A1A40134B13430B6218E00F4920
:102310000E4B1A6A104B13403A68120292B21A43DB
:102320000E4B13430B6200BF084B9B6E03F001037F
:10233000002BF9D00549054B1A6A094B13430B6270
:1023400000BF0C37BD465DF8047B704700060E40A9
:10235000FCFFC8FE02003701FCFFC8FF0100370088
:102360000000370180B400AF044B9B6E03F4803350
:102370001846BD465DF8047B704700BF00060E405E
:1023800080B400AF044B4FF000529A6200BFBD46CC
:102390005DF8047B704700BF00060E4080B400AFBC
:1023A000044B9B6E03F002031846BD465DF8047BA8
:1023B000704700BF00060E4080B400AF044B9B6E18
:1023C00003F040031846BD465DF8047B704700BF2C
:1023D00000060E4080B483B000AF78607B683F2B6E
:1023E00001D901232FE07B681F2B13D8194B9A6961
:1023F00001217B6801FA03F31A4001217B6801FA8D
:1024000003F39A421ED0134A01217B6801FA03F3B9
:10241000136117E07B68203B7B600E4BD3F80821EB
:1024200001217B6801FA03F31A4001217B6801FA5C
:1024300003F39A4206D0074A01217B6801FA03F3AD
:10244000C2F80031002318460C37BD465DF8047B06
:10245000704700BF00060E4080B483B000AFEFF3BA
:1024600010837B607B68002B0CBF01230023DBB251
:102470003B6072B6BFF35F8F044B00221A703B685B
:1024800018460C37BD465DF8047B70470A004020B3
:1024900080B483B000AF78607B68002B14BF012349
:1024A0000023DBB218460C37BD465DF8047B70474D
:1024B00080B582B000AF78607868074B98470346D4
:1024C000002B05D0054B01221A70BFF35F8F62B657
:1024D00000BF0837BD4680BD912440000A0040205F
:1024E00080B584B000AF1E4BFB601E4BBB60FA682A
:1024F000BB689A420CD007E0BB681A1DBA60FA6844
:10250000111DF96012681A60BB68174A9342F3D331
:10251000164BBB6004E0BB681A1DBA6000221A604B
:10252000BB68134A9342F6D3124BFB60124AFB6816
:1025300023F07F039360114B98477860104A104B4B
:102540001B6843F470031360BFF34F8FBFF36F8FAB
:1025500078680C4B98470C4B98470C4B9847FEE714
:10256000242E4000000040203C0440203C04402039
:10257000F80640200000400000ED00E05924400033
:1025800088ED00E0B1244000852C40002D2940005A
:1025900080B400AFFEE7000080B400AF524B1B6B6D
:1025A00003F00303012B14D0012B02D3022B38D0EC
:1025B0007AE04E4B5B6903F08003002B04D04C4B58
:1025C0004FF400421A606FE0494B4FF4FA421A6030
:1025D0006AE0454B1B6A03F08073002B03D0444B29
:1025E000444A1A6060E0424B434A1A603E4B1B6A01
:1025F00003F07003102B04D0202B08D0002B0ED03A
:102600000EE03B4B1B685B00394A136008E0384B17
:102610001A6813465B001344354A136000E000BF9C
:1026200042E0314B1B6A03F08073002B03D0304B28
:10263000304A1A601CE02E4B2F4A1A602A4B1B6A44
:1026400003F07003102B04D0202B08D0002B0ED0E9
:102650000EE0274B1B685B00254A136008E0244B03
:102660001A6813465B001344214A136000E000BF60
:102670001D4B1B6B03F00303022B14D11A4B9B6AF7
:102680001B0CC3F30A030133194A126802FB03F35C
:10269000174A1360144B9B6ADBB2154A1268B2FBEF
:1026A000F3F3134A136000BF0F4B1B6B03F070036F
:1026B000702B08D10E4B1B68104AA2FB03235B084A
:1026C0000B4A13600AE0084B1B6B1B0903F007035E
:1026D000074A126822FA03F3054A136000BFBD4699
:1026E0005DF8047B704700BF00060E4010180E40D6
:1026F0000C004020001BB70000093D00ABAAAAAAAD
:1027000080B483B000AF78607B681D4A934204D8E0
:102710001C4B4FF080621A602BE07B681A4A934290
:1027200003D8184B194A1A6023E07B68184A934271
:1027300003D8144B174A1A601BE07B68164A934271
:1027400003D8104B154A1A6013E07B68144A934271
:1027500004D80C4B4FF004221A600AE07B68114A3F
:10276000934203D8074B104A1A6002E0054B0F4A08
:102770001A6000BF0C37BD465DF8047B704700BF90
:10278000BFF35E01000C0E407FE7BD0200010004B4
:102790003FDB1C0400020004FFCE7B0500030004A5
:1027A000BFC2DA067FB6390800050004000600043F
:1027B00080B400AF034B01221A7000BFBD465DF824
:1027C000047B7047D106402080B400AF034B012248
:1027D0001A7000BFBD465DF8047B7047D3064020E9
:1027E00080B400AF034B01221A7000BFBD465DF8F4
:1027F000047B7047D206402080B582B000AF084805
:10280000084B984778607B6803F00103002B02D0E7
:10281000054B01221A7000BF0837BD4680BD00BFBE
:1028200030180E402D044000D006402080B582B004
:1028300000AF00210448054B984703467B6000BF6A
:102840000837BD4680BD00BF00C000402B084000D7
:1028500080B582B000AF01210448054B984703467C
:102860007B6000BF0837BD4680BD00BF00C0004090
:102870002B08400090B583B002AF0A20214B984747
:102880000C20204B98470B201E4B98470023012219
:102890004FF060511C481D4CA04700234FF0804270
:1028A0004FF060511A48194CA047002304224FF002
:1028B00060511848154CA047012301930123009350
:1028C000154B10224FF080511448154CA04701239E
:1028D000019301230093134B0C224FF000410C484D
:1028E0000F4CA04701230193012300930E4B0A22B2
:1028F0004FF4002104480A4CA04700BF0437BD46EE
:1029000090BD00BFD5234000000E0E40A51D400025
:1029100000120E4000100E40B127400000140E407F
:1029200081034000C9274000E127400098B500AF6F
:102930000A4B98470A4B98470A4B98470A4B9847C7
:102940000523002217210948094CA0470223012230
:1029500018210648064CA047FEE700BFC91A4000F0
:102960000516400075284000190A400000C00040CC
:10297000DD02400053B94AB9002908BF00281CBF36
:102980004FF0FF314FF0FF3000F07AB9ADF1080C95
:102990006DE904CE00F006F8DDF804E0DDE902237D
:1029A00004B070472DE9F0478C460D460446089E5A
:1029B000002B51D18A4217466DD9B2FA82FEBEF180
:1029C000000F0BD0CEF1200C01FA0EF520FA0CFC12
:1029D00002FA0EF74CEA050C00FA0EF44FEA174A19
:1029E000250CBCFBFAF81FFA87F90AFB18CC45EA5C
:1029F0000C4508FB09F3AB420AD9ED1908F1FF3287
:102A000080F02381AB4240F22081A8F102083D44CE
:102A1000ED1AA4B2B5FBFAF00AFB105544EA0544DE
:102A200000FB09F9A14509D9E41900F1FF3380F051
:102A30000A81A14540F2078102383C44A4EB090415
:102A400040EA08400021002E61D024FA0EF4002351
:102A500034607360BDE8F0878B4207D9002E54D0F4
:102A6000002186E821000846BDE8F087B3FA83F12B
:102A7000002940F08E80AB4202D3824200F2FA80FD
:102A8000841A65EB03050120AC46002E3FD086E892
:102A90001010BDE8F08712B90127B7FBF2F7B7FABB
:102AA00087FEBEF1000F34D1EB1B3A0C1FFA87FCF6
:102AB0000121B3FBF2F8250C02FB183345EA03456C
:102AC0000CFB08F3AB4207D9ED1908F1FF3002D235
:102AD000AB4200F2D1808046ED1AA3B2B5FBF2F012
:102AE00002FB105543EA05440CFB00FCA44507D942
:102AF000E41900F1FF3302D2A44500F2B880184671
:102B0000A4EB0C0440EA08409DE731463046BDE89E
:102B1000F087CEF1200405FA0EF307FA0EF720FA3B
:102B200004F83A0C25FA04F448EA0308B4FBF2F17D
:102B30004FEA184502FB11441FFA87FC45EA044599
:102B400001FB0CF3AB4200FA0EF409D9ED1901F1C7
:102B5000FF3080F08A80AB4240F2878002393D44EA
:102B6000EB1A1FFA88F5B3FBF2F002FB103345EACB
:102B7000034500FB0CF3AB4207D9ED1900F1FF3818
:102B80006FD2AB426DD902383D44EB1A40EA0141A5
:102B90008FE7C1F1200722FA07F88B4005FA01F40C
:102BA00048EA030320FA07FE4FEA134CFD404EEAC1
:102BB000040EB5FBFCF94FEA1E440CFB19551FFA35
:102BC00083F844EA054509FB08F4AC4202FA01F235
:102BD00000FA01FA08D9ED1809F1FF3043D2AC42EE
:102BE00041D9A9F102091D442D1B1FFA8EFEB5FB28
:102BF000FCF00CFB10554EEA054400FB08F8A0451C
:102C000007D9E41800F1FF3529D2A04527D90238A9
:102C10001C4440EA0940A4EB0804A0FB02894C458F
:102C2000C6464D4615D312D056B1BAEB0E0364EB2F
:102C3000050404FA07F7CB401F43CC4037607460AB
:102C40000021BDE8F0871846F8E69046E0E6C24568
:102C5000EAD2B8EB020E69EB03050138E4E7284637
:102C6000D7E7404691E78146BEE7014678E702385C
:102C70003C4445E7084608E7A8F102083D442BE735
:102C8000704700BF70B50F4E0F4D761BB61018BFC2
:102C9000002405D0013455F8043B9847A642F9D1E9
:102CA0000A4E0B4D761B00F0A7F8B61018BF002493
:102CB00006D0013455F8043B9847A642F9D170BDBF
:102CC00070BD00BF042E4000042E40000C2E4000BA
:102CD000042E4000024B13B1024800F005B87047C3
:102CE00000000000F52C4000002301461A4618465B
:102CF00000F01EB838B50A4C0A4D641BA4100AD067
:102D000004F18043013B05EB8305013C55F8043990
:102D10009847002CF9D1BDE8384000F077B800BFE3
:102D20001C2E4000182E4000704700BF704700BFA7
:102D30002DE9F8432C4D0646286898460F469146E3
:102D4000FFF7F2FF294B1C68D4F84831002B3ED026
:102D50005A681F2A1CDC02F1010E76B103EB8201D6
:102D60000124C1F88890D3F8880194402043022EB2
:102D7000C3F88801C1F8088123D00232C3F804E007
:102D8000286843F82270FFF7D1FF0020BDE8F883E0
:102D9000174B0BB34FF4C870AFF300800346D8B1A4
:102DA000D4F848210260002141600A46C4F8480175
:102DB0004FF0010EC0F88811C0F88C11002EDCD045
:102DC000CCE7D3F88C110C43C3F88C41D5E704F55C
:102DD000A673C4F84831BBE72868FFF7A7FF4FF098
:102DE000FF30BDE8F88300BF38044020F42D4000D8
:102DF0000000000010004020F8B500BFF8BC08BC7F
:102E00009E467047D52C400065014000F8B500BFD4
:0C2E1000F8BC08BC9E4670474101400021
:082E1C0088FBFF7F01000000AC
:102E2400BFF35F8F0138FBD17047010000093D00FB
:102E340000000000FC02402064034020CC0340203A
:102E4400000000000000000000000000000000007E
:102E5400000000000000000000000000000000006E
:102E6400000000000000000000000000000000005E
:102E7400000000000000000000000000000000004E
:102E8400000000000000000000000000000000003E
:102E9400000000000000000000000000000000002E
:102EA400000000000000000000000000000000001E
:102EB400000000000000000000000000000000000E
:102EC40000000000000000000000000000000000FE
:102ED40000000000000000000100000000000000ED
:102EE4000E33CDAB34126DE6ECDE05000B000000B2
:102EF40000000000000000000000000000000000CE
:102F040000000000000000000000000000000000BD
:102F140000000000000000000000000000000000AD
:102F2400000000000000000000000000000000009D
:0C3254000000000000000000D406402034
:04000005004024E1B2
:00000001FF
